:1000000007C1000033C1000031C100002FC1000052
:100010002DC100002BC1000029C1000027C1000034
:1000200025C1000023C1000021C100001FC1000044
:100030001DC100001BC1000019C1000017C1000054
:1000400015C1000013C1000011C100000FC1000064
:100050000DC100000BC1000009C1000065C3000014
:1000600005C1000003C1000001C10000FFC0000085
:10007000FDC00000FBC00000F9C00000F7C0000098
:10008000F5C00000F3C00000F1C00000EFC00000A8
:10009000EDC00000EBC00000E9C00000E7C00000B8
:1000A000E5C00000E3C00000E1C00000DFC00000C8
:1000B000DDC00000DBC00000D9C00000D7C00000D8
:1000C000D5C00000D3C00000D1C00000CFC00000E8
:1000D000CDC00000CBC00000C9C00000C7C00000F8
:1000E000C5C000008401870176017A017E01BE014E
:1000F0008B018F01950199019D01A301A701AB011E
:10010000BE01B101B501B90100000A0B02090C0DD5
:100110000E080703040100000000000000000000BA
:1001200000000000000000000000000000000000CF
:10013000000000001211100000000000000000008C
:1001400000000000000000000000000000000000AF
:100150002200250028002B002E003100340002016F
:100160000000050108010B01000021002400270008
:100170002A002D00300033000101000004010701B6
:100180000A0105050505070508080808020202021C
:100190000A0A080804040404010101010101010123
:1001A0000303030303030303040707070C0C0C0CEE
:1001B0000C0C0C0C020202020606060606060606D7
:1001C0000B0B0B0B0B0B0B0B010210202008081064
:1001D00020401020408002010201080402010102B7
:1001E0000408102040808040201008040201800490
:1001F00002018040201008040201080402010102EB
:1002000004081020408001020408102040802D05C1
:1002100011241FBECFEFD1E2DEBFCDBF00E00CBF87
:1002200012E0A0E0B2E0E0EBFAE000E00BBF02C0B9
:1002300007900D92AC31B107D9F722E0ACE1B2E002
:1002400001C01D92AE33B207E1F711E0C8E0D1E082
:1002500000E005C021970109802FFE011BD4C730A3
:10026000D10780E00807B1F7A9D220C4C9CE90E039
:10027000FC01E853FE4F2491FC01EE57FE4F8491A0
:10028000882399F090E0880F991FFC01E859FE4FF0
:10029000A591B491FC01E25BFE4F859194918FB7DB
:1002A000F894EC91E22BEC938FBF0895362F90E0F9
:1002B000FC01E85FFE4F4491FC01E853FE4F24919E
:1002C000FC01EE57FE4F9491992309F46BC044232F
:1002D00009F454C050E0FA013197E231F10508F019
:1002E0004DC08827EE58FF4F8F4FD4C380918000B8
:1002F0008F7707C0809180008F7D03C08091800040
:10030000877F809380003AC084B58F7702C084B520
:100310008F7D84BD33C08091B0008F7703C0809102
:10032000B0008F7D8093B00029C0809190008F77BE
:1003300007C0809190008F7D03C080919000877FDF
:10034000809390001BC08091A0008F7707C08091A0
:10035000A0008F7D03C08091A000877F8093A000C4
:100360000DC0809120018F7707C0809120018F7D83
:1003700003C080912001877F80932001E92FF0E066
:10038000EE0FFF1FE25BFE4FA591B4919FB7F8946B
:10039000311104C08C912095282302C0EC912E2BA2
:1003A0002C939FBF08953FB7F894809122029091BB
:1003B0002302A0912402B091250226B5A89B05C076
:1003C0002F3F19F00196A11DB11D3FBFBA2FA92FD4
:1003D000982F8827820F911DA11DB11DBC01CD0151
:1003E00042E0660F771F881F991F4A95D1F708953D
:1003F0008F929F92AF92BF92CF92DF92EF92FF9235
:100400006B017C01D0DF4B015C01C114D104E1041C
:10041000F104E9F0C8DFDC01CB0188199909AA09C8
:10042000BB09883E9340A105B10578F321E0C21ACB
:10043000D108E108F10888EE880E83E0981EA11C1F
:10044000B11CC114D104E104F10421F7DECFFF9007
:10045000EF90DF90CF90BF90AF909F908F900895D6
:10046000CF92DF92EF92FF920F931F93CF93DF9380
:100470006C017A018B01C0E0D0E0CE15DF0581F080
:10048000D8016D918D01D601ED91FC910190F08123
:10049000E02DC6011995892B11F02196EECF7E0132
:1004A000C701DF91CF911F910F91FF90EF90DF90E7
:1004B000CF900895CF93DF93EC0160E08E81F6DE5C
:1004C00061E08E81F3DE60E08E81F0DE8BE891E00A
:1004D0000197F1F7DF91CF910895CF92DF92EF92DC
:1004E000FF920F931F93CF93DF936C017C0187E002
:1004F000E80EF11CC0E0D0E0062F10E0B8010C2E91
:1005000002C0759567950A94E2F76170F7018191D1
:100510007F01CCDE2196C430D10581F7C601DF9181
:10052000CF911F910F91FF90EF90DF90CF90C2CFAE
:10053000CF92DF92EF92FF920F931F93CF93DF93AF
:10054000EC01F62E642F8C81B1DE8D818F3F11F08E
:1005500060E0ACDE8F850F2D10E084FF23C06E01BC
:1005600087E0C80ED11CE12CF12CB8010E2C02C082
:10057000759567950A94E2F76170F60181916F01B4
:1005800095DEFFEFEF1AFF0A88E0E816F10469F73D
:10059000CE01DF91CF911F910F91FF90EF90DF90EF
:1005A000CF9088CFB80184E0759567958A95E1F77B
:1005B000CE0193DF6F2DCE01DF91CF911F910F916F
:1005C000FF90EF90DF90CF9088CFCF93DF93823072
:1005D00028F090913502986090933502809339020B
:1005E00010923A0280E480933B0280E180933C02C7
:1005F00080E580933D0280912A0239DE80912B02B2
:100600008F3F09F034DE80912C0231DEC6E2D2E069
:100610009E01265232408091350284FD03C084E061
:1006200090E002C088E090E02196281739071CF47A
:100630008E811DDEEDCF8BE39DE00197F1F760E049
:1006400080912A0233DE60E080912C022FDE8091BF
:100650002B028F3F11F060E029DE6091350264FDCE
:100660001CC063E086E292E038DFCBE4D6E4CE0142
:100670000197F1F763E086E292E02FDF2197F1F72F
:1006800063E086E292E029DF83E592E00197F1F7EB
:1006900062E086E292E021DF1BC0606240E086E219
:1006A00092E046DF8BE496E40197F1F76091350222
:1006B000606240E086E292E03BDF83E592E00197F2
:1006C000F1F760913502606240E086E292E030DF4F
:1006D00060913502606240E086E292E029DF84E0CA
:1006E0008093360240E06CE086E292E021DF40E059
:1006F00061E086E292E01CDF8BE39FE10197F1F776
:1007000082E08093370240E066E086E292E0DF918B
:10071000CF910ECF41E00CDF81E090E00895089585
:1007200080E090E00895BED11F920F920FB60F9215
:1007300011242F933F938F939F93AF93BF938091F7
:100740001E0290911F02A0912002B09121023091CF
:100750001D0223E0230F2D3720F40196A11DB11DAA
:1007600005C026E8230F0296A11DB11D20931D028E
:1007700080931E0290931F02A0932002B093210247
:100780008091220290912302A0912402B09125022F
:100790000196A11DB11D8093220290932302A09384
:1007A0002402B0932502BF91AF919F918F913F9109
:1007B0002F910F900FBE0F901F901895789484B5CD
:1007C000826084BD84B5816084BD85B5826085BD4D
:1007D00085B5816085BD80916E00816080936E00DB
:1007E00010928100809181008260809381008091CD
:1007F000810081608093810080918000816080937E
:1008000080008091B10084608093B1008091B0003D
:1008100081608093B000809191008260809391000C
:10082000809191008160809391008091900081601F
:10083000809390008091A10082608093A1008091BC
:10084000A10081608093A1008091A00081608093CD
:10085000A00080912101826080932101809121017B
:10086000816080932101809120018160809320012B
:1008700080917A00846080937A0080917A0082600F
:1008800080937A0080917A00816080937A008091D1
:100890007A00806880937A001092C1008FE080BB5C
:1008A00080EF81BB86E0E3DC60E086E0FFDC82E095
:1008B0008CDE4DE050E06EE072E086E292E0D0DD4A
:1008C000DEEF10EF05E46BE3E62E6FE1F62E70E04D
:1008D000C72E70E0D72EC1E0E6E4BE2E84E4A82E39
:1008E00093E4992E22E4822E31E4732E40E3642EA9
:1008F00059E3552E80910102813009F089C08FB1F2
:10090000803F09F48FC062E370E080E090E070DD2A
:1009100010920102D1BB000091B38FB1981317C0A0
:100920008DEF81BB000091B38FB1981310C08BEF96
:1009300081BB000091B38FB1981309C087EF81BBD1
:10094000000091B38FB1981302C010920002809101
:100950000002813009F058C08FB18E3E19F481E356
:1009600080931C028FB18E3D19F482E380931C02A8
:100970008FB18E3B19F483E380931C028FB18D3EBF
:1009800019F484E380931C028FB18D3D19F485E343
:1009900080931C028FB18D3B19F486E380931C0277
:1009A0008FB18B3E19F487E380931C028FB18B3D8E
:1009B00019F488E380931C028FB18B3B11F45092A1
:1009C0001C028FB1873D11F460921C028FB18E37EB
:1009D00011F470921C028FB18D3711F480921C02B9
:1009E0008FB18B3711F490921C028FB1873711F4BD
:1009F000A0921C028FB1873B11F400931C028FB1AF
:100A0000873E11F4B0921C02C093000211BB0AC0D1
:100A10008FB1803F39F468EC70E080E090E0E8DC72
:100A2000C093010280911C0282B980910102813041
:100A300069F040E061E086E292E07ADDC70101976B
:100A4000F1F760911C0286E292E064DEC114D104E9
:100A500009F450CF0E94000041CFE6E2F2E0138299
:100A6000128286E092E09183808385E084838FEF19
:100A7000858387E0868388E0878389E080878AE0B2
:100A800081878BE0828713861486158616861786E3
:100A900081E09BCDEE0FFF1F881F8BBF0790F69163
:100AA000E02D199481E090E0F89400C0F894FFCF15
:100AB0000101000000008A03300290038F03686583
:0C0AC0006C6C6F2C20776F726C6421004E
:00000001FF
