:1000000061C100008DC100008BC1000089C10000EA
:1000100087C1000085C1000083C1000081C10000CC
:100020007FC100007DC100007BC1000079C10000DC
:1000300077C1000075C1000073C1000071C10000EC
:100040006FC1000017C400006BC1000069C100004F
:1000500067C1000065C1000063C10000C1C30000AA
:100060005FC100005DC100005BC1000059C100001C
:1000700057C1000055C1000053C1000051C100002C
:100080004FC100004DC100004BC1000049C100003C
:1000900047C1000045C1000043C1000041C100004C
:1000A0003FC100003DC100003BC1000039C100005C
:1000B00037C1000035C1000033C1000031C100006C
:1000C0002FC100002DC100002BC1000029C100007C
:1000D00027C1000025C1000023C1000021C100008C
:1000E0001FC10000DE01E101D001D401D8011802D6
:1000F000E501E901EF01F301F701FD01010205024C
:1001000018020B020F02130230300030310030327F
:1001100000303300303400303500303600303700E6
:1001200030380030390031300031310031320031A7
:100130003300313400313500313600313700313889
:1001400000313900323000323100323200323300B7
:100150003234003235003236003237003238003265
:10016000390033300033310033320033330033345D
:10017000003335003336003337003338003339006D
:10018000343000343100343200343300343400343D
:100190003500343600343700343800343900353017
:1001A0000035310035320035330035340035350047
:1001B00035360035370035380035390000000A0B78
:1001C00002090C0D0E0807030401000000000000E6
:1001D000000000000000000000000000000000001F
:1001E00000000000000000001211100000000000DC
:1001F00000000000000000000000000000000000FF
:10020000000000002200250028002B002E003100F5
:10021000340002010000050108010B01000021006B
:10022000240027002A002D003000330001010000C7
:10023000040107010A010505050507050808080866
:10024000020202020A0A080804040404010101016E
:100250000101010103030303030303030407070769
:100260000C0C0C0C0C0C0C0C02020202060606060E
:10027000060606060B0B0B0B0B0B0B0B01021020DB
:1002800020080810204010204080020102010804CC
:100290000201010204081020408080402010080460
:1002A00002018004020180402010080402010804B9
:1002B00002010102040810204080010204081020FD
:1002C00040801D0611241FBECFEFD1E2DEBFCDBF9F
:1002D00000E00CBF12E0A0E0B2E0E0E9FCE000E0EA
:1002E0000BBF02C007900D92AE30B107D9F722E0E4
:1002F000AEE0B2E001C01D92A433B207E1F711E015
:10030000C2E6D1E000E005C021970109802FFE017F
:10031000B1D4C136D10780E00807B1F725D3B6C400
:100320006FCE90E0FC01E458FD4F2491FC01EA5CA3
:10033000FD4F8491882399F090E0880F991FFC016C
:10034000E45EFD4FA591B491FC01EE5FFD4F8591F8
:1003500094918FB7F894EC91E22BEC938FBF0895B2
:10036000362F90E0FC01E454FE4F4491FC01E45828
:10037000FD4F2491FC01EA5CFD4F9491992309F40F
:100380006BC0442309F454C050E0FA013197E231C4
:10039000F10508F04DC08827EE58FF4F8F4F6AC413
:1003A000809180008F7707C0809180008F7D03C08F
:1003B00080918000877F809380003AC084B58F77DA
:1003C00002C084B58F7D84BD33C08091B0008F772B
:1003D00003C08091B0008F7D8093B00029C08091D0
:1003E00090008F7707C0809190008F7D03C080912F
:1003F0009000877F809390001BC08091A0008F7732
:1004000007C08091A0008F7D03C08091A000877FEE
:100410008093A0000DC0809120018F7707C080914C
:1004200020018F7D03C080912001877F8093200170
:10043000E92FF0E0EE0FFF1FEE5FFD4FA591B491A5
:100440009FB7F894311104C08C912095282302C0E5
:10045000EC912E2B2C939FBF08953FB7F894809179
:10046000180290911902A0911A02B0911B0226B5B0
:10047000A89B05C02F3F19F00196A11DB11D3FBFDC
:10048000BA2FA92F982F8827820F911DA11DB11D6A
:10049000BC01CD0142E0660F771F881F991F4A9566
:1004A000D1F708958F929F92AF92BF92CF92DF9231
:1004B000EF92FF926B017C01D0DF4B015C01C11414
:1004C000D104E104F104E9F0C8DFDC01CB018819B3
:1004D0009909AA09BB09883E9340A105B10578F3A3
:1004E00021E0C21AD108E108F10888EE880E83E005
:1004F000981EA11CB11CC114D104E104F10421F720
:10050000DECFFF90EF90DF90CF90BF90AF909F90A5
:100510008F900895CF92DF92EF92FF920F931F93E7
:10052000CF93DF936C017A018B01C0E0D0E0CE1550
:10053000DF0581F0D8016D918D01D601ED91FC911F
:100540000190F081E02DC6011995892B11F02196BB
:10055000EECF7E01C701DF91CF911F910F91FF90E8
:10056000EF90DF90CF900895CF93DF93EC0160E0A0
:100570008E81F6DE61E08E81F3DE60E08E81F0DE5A
:100580008BE891E00197F1F7DF91CF910895CF9239
:10059000DF92EF92FF920F931F93CF93DF936C0143
:1005A0007C0187E0E80EF11CC0E0D0E0062F10E0EF
:1005B000B8010C2E02C0759567950A94E2F7617038
:1005C000F70181917F01CCDE2196C430D10581F7FE
:1005D000C601DF91CF911F910F91FF90EF90DF90B7
:1005E000CF90C2CFCF92DF92EF92FF920F931F93E3
:1005F000CF93DF93EC01F62E642F8C81B1DE8D81D9
:100600008F3F11F060E0ACDE8F850F2D10E084FF8E
:1006100023C06E0187E0C80ED11CE12CF12CB8017B
:100620000E2C02C0759567950A94E2F76170F60189
:1006300081916F0195DEFFEFEF1AFF0A88E0E8165F
:10064000F10469F7CE01DF91CF911F910F91FF90D7
:10065000EF90DF90CF9088CFB80184E075956795D3
:100660008A95E1F7CE0193DF6F2DCE01DF91CF9117
:100670001F910F91FF90EF90DF90CF9088CF40E0D7
:10068000682F8CE192E0AECFCF93DF93823028F0D9
:1006900090912B02986090932B0280932F021092DE
:1006A000300280E48093310280E18093320280E561
:1006B000809333028091200234DE809121028F3FAB
:1006C00009F02FDE809122022CDECCE1D2E09E01E7
:1006D0002C51324080912B0284FD03C084E090E0D5
:1006E00002C088E090E02196281739071CF48E811B
:1006F00018DEEDCF8BE39DE00197F1F760E080918C
:1007000020022EDE60E0809122022ADE809121020A
:100710008F3F11F060E024DE80912B0284FD1CC02D
:1007200063E08CE192E033DFCBE4D6E4CE010197C5
:10073000F1F763E08CE192E02ADF2197F1F763E0C3
:100740008CE192E024DF83E592E00197F1F762E02B
:100750008CE192E01CDF12C0806291DF8BE496E4B2
:100760000197F1F780912B02806289DF83E592E0A7
:100770000197F1F780912B02806281DF80912B023B
:1007800080627DDF84E080932C028CE078DF81E062
:1007900076DF8BE39FE10197F1F782E080932D02F2
:1007A00086E0DF91CF916BCF41E01CDF81E090E0EC
:1007B0000895CF93DF93EC01FC01649141E08CE15B
:1007C00092E010DFFE013196649141E08CE192E00D
:1007D000DF91CF9107CF089580E090E0089552D245
:1007E0001F920F920FB60F9211242F933F938F9366
:1007F0009F93AF93BF938091140290911502A091A3
:100800001602B09117023091130223E0230F2D3707
:1008100020F40196A11DB11D05C026E8230F029604
:10082000A11DB11D20931302809314029093150211
:10083000A0931602B09317028091180290911902AA
:10084000A0911A02B0911B020196A11DB11D8093C7
:10085000180290931902A0931A02B0931B02BF9141
:10086000AF919F918F913F912F910F900FBE0F905D
:100870001F9018951F920F920FB60F9211240BB66E
:100880000F922F933F934F935F936F937F938F9329
:100890009F93AF93BF93EF93FF9380910E028F5F6F
:1008A0008C3319F080930E0216C010920E028091C4
:1008B0000F028F5F8C3319F080930F020CC01092DF
:1008C0000F02809110028F5F883119F0809310021F
:1008D00002C010921002E1E080912F028111E0E04D
:1008E000E195F0E0E45EFD4F84898D5F8068C7DEAE
:1008F0008091100290E09C01220F331F820F931F02
:10090000885F9E4F56DF6AE38CE192E04DDF809175
:100910000F0290E09C01220F331F820F931F885F0C
:100920009E4F47DF6AE38CE192E03EDF80910E024A
:1009300090E09C01220F331F820F931F885F9E4F10
:1009400038DFFF91EF91BF91AF919F918F917F9190
:100950006F915F914F913F912F910F900BBE0F9030
:100960000FBE0F901F901895789484B5826084BD57
:1009700084B5816084BD85B5826085BD85B58160A3
:1009800085BD80916E00816080936E001092810021
:1009900080918100826080938100809181008160DC
:1009A000809381008091800081608093800080919D
:1009B000B10084608093B1008091B0008160809329
:1009C000B0008091910082608093910080919100AD
:1009D000816080939100809190008160809390006D
:1009E0008091A10082608093A1008091A10081602C
:1009F0008093A1008091A00081608093A0008091ED
:100A00002101826080932101809121018160809386
:100A100021018091200181608093200180917A00E2
:100A2000846080937A0080917A00826080937A005B
:100A300080917A00816080937A0080917A0080684A
:100A400080937A001092C100F894109280008DE09B
:100A50008093810082E080936F0088E09DE3909313
:100A60008900809388008FE080BB80EF81BB82E0AB
:100A70000BDE789485E155DC60E085E171DCDEEF2A
:100A800010EF04E460E0E62E60E0F62EC1E076E4CC
:100A9000D72EE5E4CE2E83E4B82E92E4A92E21E4ED
:100AA000922E30E3832E49E3742E58E3652E509046
:100AB000010281E058128DC08FB1803F09F493C0CC
:100AC00062E370E080E090E0EDDC10920102509271
:100AD0000002D1BB000091B38FB1981317C08DEF06
:100AE00081BB000091B38FB1981310C08BEF81BB15
:100AF000000091B38FB1981309C087EF81BB00004C
:100B000091B38FB1981302C010920002809100023D
:100B1000813009F05CC08FB18E3E11F481E304C0D6
:100B20008FB18E3D21F482E3809311024EC08FB1CC
:100B30008E3B11F483E3F8CF8FB18D3E11F484E343
:100B4000F3CF8FB18D3D11F485E3EECF8FB18D3BA7
:100B500011F486E3E9CF8FB18B3E11F487E3E4CF44
:100B60008FB18B3D19F4609211022FC08FB18B3B76
:100B700019F47092110229C08FB1873D19F4809247
:100B8000110223C08FB18E3719F4909211021DC04B
:100B90008FB18D3719F4A092110217C08FB18B3726
:100BA00019F4B092110211C08FB1873719F4009374
:100BB00011020BC08FB1873B19F4C092110205C01E
:100BC0008FB1873E11F4D0921102C093120211BB73
:100BD0000AC08FB1803F39F468EC70E080E090E0AB
:100BE00061DCC0930102809112028823F9F061E078
:100BF00085E1B6DBE0912F02E23010F4E15001C054
:100C0000E1E0F0E0E45EFD4F8489806838DD109219
:100C10001202609111028CE192E0C6DD64E670E0A0
:100C200080E090E03FDC60E085E19ADBE114F104D4
:100C300009F43DCF0E9400002ECFECE1F2E01382D8
:100C4000128286E092E09183808385E0848386E04F
:100C5000858387E0868388E0878389E080878AE0D0
:100C600081878BE082871386148615861686178601
:100C700081E00ACDEE0FFF1F881F8BBF0790F69112
:100C8000E02D199481E090E0F89400C0F894FFCF33
:0E0C9000010100000000D4038A02EC03EB0314
:00000001FF
