:1000000061C100008EC100008CC100008AC10000E7
:1000100088C1000086C1000084C1000082C10000C8
:1000200080C100007EC100007CC100007AC10000D8
:1000300078C1000076C1000074C1000072C10000E8
:1000400070C100006EC100006CC100006AC10000F8
:1000500068C1000066C1000064C100000FC4000058
:1000600060C100005EC100005CC100005AC1000018
:1000700058C1000056C1000054C1000052C1000028
:1000800050C100004EC100004CC100004AC1000038
:1000900048C1000046C1000044C1000042C1000048
:1000A00040C100003EC1000033C400003AC100005E
:1000B00038C1000036C1000034C1000032C1000068
:1000C00030C100002EC100002CC100002AC1000078
:1000D00028C1000026C1000024C1000022C1000088
:1000E00020C10000DF01E201D101D501D9011902CF
:1000F000E601EA01F001F401F801FE010202060244
:1001000019020C021002140230300030310030327B
:1001100000303300303400303500303600303700E6
:1001200030380030390031300031310031320031A7
:100130003300313400313500313600313700313889
:1001400000313900323000323100323200323300B7
:100150003234003235003236003237003238003265
:10016000390033300033310033320033330033345D
:10017000003335003336003337003338003339006D
:10018000343000343100343200343300343400343D
:100190003500343600343700343800343900353017
:1001A0000035310035320035330035340035350047
:1001B00035360035370035380035390000000A0B78
:1001C00002090C0D0E0807030401000000000000E6
:1001D000000000000000000000000000000000001F
:1001E00000000000000000001211100000000000DC
:1001F00000000000000000000000000000000000FF
:10020000000000002200250028002B002E003100F5
:10021000340002010000050108010B01000021006B
:10022000240027002A002D003000330001010000C7
:10023000040107010A010505050507050808080866
:10024000020202020A0A080804040404010101016E
:100250000101010103030303030303030407070769
:100260000C0C0C0C0C0C0C0C02020202060606060E
:10027000060606060B0B0B0B0B0B0B0B01021020DB
:1002800020080810204010204080020102010804CC
:100290000201010204081020408080402010080460
:1002A00002018004020180402010080402010804B9
:1002B00002010102040810204080010204081020FD
:1002C0004080D60811241FBECFEFD1E2DEBFCDBFE4
:1002D00000E00CBF12E0A0E0B2E0EEEDF7E100E0DC
:1002E0000BBF02C007900D92A632B107D9F724E0E8
:1002F000A6E2B2E001C01D92A23BB207E1F711E015
:10030000C2E6D1E000E005C021970109802FFE017F
:100310006FD7C136D10780E00807B1F723D30C941B
:10032000ED0B6ECE90E0FC01E458FD4F2491FC01F2
:10033000EA5CFD4F8491882399F090E0880F991F23
:10034000FC01E45EFD4FA591B491FC01EE5FFD4F11
:10035000859194918FB7F894EC91E22BEC938FBF39
:100360000895362F90E0FC01E454FE4F4491FC01C7
:10037000E458FD4F2491FC01EA5CFD4F94919923D0
:1003800009F46BC0442309F454C050E0FA013197DA
:10039000E231F10508F04DC08827EE58FF4F8F4F2E
:1003A00027C7809180008F7707C0809180008F7D64
:1003B00003C080918000877F809380003AC084B51D
:1003C0008F7702C084B58F7D84BD33C08091B0002B
:1003D0008F7703C08091B0008F7D8093B00029C0DB
:1003E000809190008F7707C0809190008F7D03C02F
:1003F00080919000877F809390001BC08091A00027
:100400008F7707C08091A0008F7D03C08091A000EE
:10041000877F8093A0000DC0809120018F7707C057
:10042000809120018F7D03C080912001877F809380
:100430002001E92FF0E0EE0FFF1FEE5FFD4FA591C9
:10044000B4919FB7F894311104C08C912095282362
:1004500002C0EC912E2B2C939FBF08953FB7F894C8
:100460008091960490919704A0919804B09199047A
:1004700026B5A89B05C02F3F19F00196A11DB11DFF
:100480003FBFBA2FA92F982F8827820F911DA11D3A
:10049000B11DBC01CD0142E0660F771F881F991F77
:1004A0004A95D1F708958F929F92AF92BF92CF92C3
:1004B000DF92EF92FF926B017C01D0DF4B015C0178
:1004C000C114D104E104F104E9F0C8DFDC01CB017F
:1004D00088199909AA09BB09883E9340A105B1056D
:1004E00078F321E0C21AD108E108F10888EE880EFD
:1004F00083E0981EA11CB11CC114D104E104F104D5
:1005000021F7DECFFF90EF90DF90CF90BF90AF90BC
:100510009F908F900895CF92DF92EF92FF920F936A
:100520001F93CF93DF936C017A018B01C0E0D0E081
:10053000CE15DF0581F0D8016D918D01D601ED91C9
:10054000FC910190F081E02DC6011995892B11F0E5
:100550002196EECF7E01C701DF91CF911F910F91C0
:10056000FF90EF90DF90CF900895CF93DF93EC0151
:1005700060E08E81F6DE61E08E81F3DE60E08E81E8
:10058000F0DE8BE891E00197F1F7DF91CF910895CC
:10059000CF92DF92EF92FF920F931F93CF93DF934F
:1005A0006C017C0187E0E80EF11CC0E0D0E0062F72
:1005B00010E0B8010C2E02C0759567950A94E2F719
:1005C0006170F70181917F01CCDE2196C430D105A5
:1005D00081F7C601DF91CF911F910F91FF90EF90AE
:1005E000DF90CF90C2CFCF92DF92EF92FF920F9326
:1005F0001F93CF93DF93EC01F62E642F8C81B1DE35
:100600008D818F3F11F060E0ACDE8F850F2D10E003
:1006100084FF23C06E0187E0C80ED11CE12CF12CB1
:10062000B8010E2C02C0759567950A94E2F76170C7
:10063000F60181916F0195DEFFEFEF1AFF0A88E066
:10064000E816F10469F7CE01DF91CF911F910F9168
:10065000FF90EF90DF90CF9088CFB80184E0759540
:1006600067958A95E1F7CE0193DF6F2DCE01DF917B
:10067000CF911F910F91FF90EF90DF90CF9088CF97
:1006800040E0682F8AE994E0AECFCF93DF938230C9
:1006900028F09091A90498609093A9048093AD04E8
:1006A0001092AE0480E48093AF0480E18093B004A4
:1006B00080E58093B10480919E0434DE80919F0494
:1006C0008F3F09F02FDE8091A0042CDECAE9D4E030
:1006D0009E012A5934408091A90484FD03C084E01E
:1006E00090E002C088E090E02196281739071CF4BA
:1006F0008E8118DEEDCF8BE39DE00197F1F760E08E
:1007000080919E042EDE60E08091A0042ADE80911C
:100710009F048F3F11F060E024DE8091A90484FDE6
:100720001CC063E08AE994E033DFCBE4D6E4CE0179
:100730000197F1F763E08AE994E02ADF2197F1F766
:1007400063E08AE994E024DF83E592E00197F1F722
:1007500062E08AE994E01CDF12C0806291DF8BE4E2
:1007600096E40197F1F78091A904806289DF83E51F
:1007700092E00197F1F78091A904806281DF809176
:10078000A90480627DDF84E08093AA048CE078DF96
:1007900081E076DF8BE39FE10197F1F782E08093C0
:1007A000AB0486E0DF91CF916BCF643008F063E05B
:1007B0009091AD04691710F06FEF690FE62FF0E02C
:1007C000E656FB4F9489890F80685ACF41E00BDFD2
:1007D00081E090E00895CF93DF93EC01FC016491F8
:1007E00041E08AE994E0FFDEFE013196649141E048
:1007F0008AE994E0DF91CF91F6CE089580E090E011
:100800000895CF93DF93C0912602D09127022196BD
:10081000D0932702C093260261E080E0C6DF1092E9
:10082000900460918F048AE994E0D0DF239789F4E3
:10083000109227021092260261E085E192DD64E6C3
:1008400070E080E090E02FDE60E085E1DF91CF9105
:1008500088CDDF91CF910895009761F0FC01019060
:100860000020E9F73197AF01481B590BBC018AE919
:1008700094E051CE80E090E00895C2D41F920F9290
:100880000FB60F9211242F933F938F939F93AF93A3
:10089000BF938091920490919304A0919404B0919D
:1008A00095043091910423E0230F2D3720F4019615
:1008B000A11DB11D05C026E8230F0296A11DB11D83
:1008C000209391048093920490939304A0939404B2
:1008D000B09395048091960490919704A091980408
:1008E000B09199040196A11DB11D80939604909337
:1008F0009704A0939804B0939904BF91AF919F91EE
:100900008F913F912F910F900FBE0F901F901895D0
:100910001F920F920FB60F9211248F9380912E0287
:100920008F5F8C3319F080932E0216C010922E0226
:1009300080912F028F5F8C3319F080932F020CC0AF
:1009400010922F02809130028F5F883119F08093CE
:10095000300202C0109230028F910F900FBE0F90A4
:100960001F901895CF93DF93CDB7DEB76E970FB674
:10097000F894DEBF0FBECDBF789484B5826084BD8D
:1009800084B5816084BD85B5826085BD85B5816093
:1009900085BD80916E00816080936E001092810011
:1009A00080918100826080938100809181008160CC
:1009B000809381008091800081608093800080918D
:1009C000B10084608093B1008091B0008160809319
:1009D000B00080919100826080939100809191009D
:1009E000816080939100809190008160809390005D
:1009F0008091A10082608093A1008091A10081601C
:100A00008093A1008091A00081608093A0008091DC
:100A10002101826080932101809121018160809376
:100A200021018091200181608093200180917A00D2
:100A3000846080937A0080917A00826080937A004B
:100A400080917A00816080937A0080917A0080683A
:100A500080937A001092C100F8941092A0008DE06B
:100A60008093A10082E08093720088E09DE39093E0
:100A7000A9008093A8008FE080BB80EF81BB82E05B
:100A800004DE789485E14EDC60E085E16ADCE9E033
:100A90002E2E312CF8E04F2E512CA7E06A2E712C0F
:100AA000B6E08B2E912C8E010F5F1F4F5E0120E16F
:100AB000A20EB11C70E1E72E72E0F72E60E083E039
:100AC00074DE8091300290E09C01220F331F820F70
:100AD000931F885F9E4F7FDE6AE38AE994E076DEAB
:100AE00080912F0290E09C01220F331F820F931FF1
:100AF000885F9E4F70DE6AE38AE994E067DE80914A
:100B00002E0290E09C01220F331F820F931F885FFB
:100B10009E4F61DED090010231E08FB1D31286C0CA
:100B2000803F09F48DC062E370E080E090E0BBDCC0
:100B300010920102D09200028EEF81BB000091B3AF
:100B40008FB1981317C08DEF81BB000091B38FB1A7
:100B5000981310C08BEF81BB000091B38FB1981335
:100B600009C087EF81BB000091B38FB1981302C019
:100B70001092000280910002813009F054C08FB1C0
:100B80008E3E11F481E34AC08FB18E3D11F482E3B1
:100B900045C08FB18E3B11F483E340C08FB18D3ED1
:100BA00011F484E33BC08FB18D3D11F485E336C071
:100BB0008FB18D3B11F486E331C08FB18B3E11F4C0
:100BC00087E32CC08FB18B3D11F488E327C08FB130
:100BD0008B3B11F489E322C08FB1873D11F480E390
:100BE0001DC08FB18E3711F481E418C08FB18D37DD
:100BF00011F482E413C08FB18B3711F483E40EC07B
:100C00008FB1873711F484E409C08FB1873B11F4A9
:100C100085E404C08FB1873E19F486E480938F0485
:100C200081E08093900480EF81BB0AC0803F41F453
:100C300068EC70E080E090E036DC81E080930102B7
:100C400080919004882309F429C281E019DD8BE3A7
:100C50009FE10197F1F761E085E183DB1092900459
:100C600080918F048134D1F480918E048F93809190
:100C70008D048F93FF92EF921F930F93D3D261E075
:100C800083E093DDC801E8DD10928C0410928B04A0
:100C90000F900F900F900F900F900F901092900464
:100CA00080918F04823409F03EC081E090E09093FF
:100CB0008C0480938B042091890430918A04C901AB
:100CC00001969F938F934AE0429FC001439F900DEE
:100CD00011248F5C9D4F9F938F9385E192E09F93AA
:100CE0008F931F930F939ED261E083E05EDD0FB67A
:100CF000F894DEBF0FBECDBF2091890430918A04E5
:100D000080918D0490918E042817390714F4C8013E
:100D1000A3DD8091890490918A04019690938A04BE
:100D20008093890404C010928A041092890410925E
:100D3000900480918F04833479F41092030210920E
:100D40000202F89410922E0210922F02109230029A
:100D500010928C0410928B041092900480918F0456
:100D60008434E1F4809102029091030221E030E0AA
:100D7000009711F020E030E030930302209302024C
:100D8000892B09F478948091020290910302892BB7
:100D900009F4F89410928C0410928B041092900431
:100DA00080918F04853409F0CFC080918B0490919D
:100DB0008C04019709F078C0809128029091290253
:100DC000181619060CF070C02091260230912702E7
:100DD0002130310539F59F938F9301974AE0489F61
:100DE0009001499F300D1124C9018F5C9D4F9F9345
:100DF0008F9385E192E09F938F931F930F9312D26D
:100E0000109229021092280261E083E0CEDCC80132
:100E100023DD10922702109226020FB6F894DEBF4F
:100E20000FBECDBF8091260290912702029709F054
:100E30008BC080912802909129022AE0289FA0016E
:100E4000299F500D112480912A0290912B02840F2A
:100E5000951F01978D33910564F061E085E181DA9A
:100E600068EE73E080E090E01EDB60E085E179DA17
:100E70006BC0289FB001299F700D11246F5C7D4FBE
:100E8000C801C9D1109229021092280210922B0297
:100E900010922A0261E083E088DCC801DDDC109258
:100EA00027021092260250C080918D0490918E04EA
:100EB000CC9761F44CE350E064E172E081E392E0AE
:100EC000A3D110928E0410928D0431C080912E0215
:100ED0001F928F9380912F021F928F9380913002E7
:100EE0001F928F938CE192E09F938F93BF92AF926A
:100EF00099D120918D0430918E044AE0429FC00127
:100F0000439F900D11249C012F5C3D4F6901B50159
:100F1000C90181D1B601C8017ED161E083E045DC21
:100F2000C8019ADC0FB6F894DEBF0FBECDBF80912A
:100F30008D0490918E04019690938E0480938D047D
:100F400010928C0410928B041092900480918F0464
:100F5000863409F54CE350E064E172E081E392E00D
:100F600053D110928E0410928D041F921F92FF9203
:100F7000EF921F930F9356D161E083E016DCC80116
:100F80006BDC10928C0410928B040F900F900F90DA
:100F90000F900F900F9010929004D0908F0491E3D7
:100FA000D91208C080918B0490918C0481309105F6
:100FB00009F47CC01092900422E3D21207C0809101
:100FC0008B0490918C04019709F47CC010929004DA
:100FD00033E3D31207C080918B0490918C04019766
:100FE00009F47EC01092900484E3D81207C0809167
:100FF0008B0490918C04019709F480C010929004A6
:1010000095E3D91207C080918B0490918C040197CD
:1010100009F482C01092900426E3D21207C0809196
:101020008B0490918C04019709F484C01092900471
:1010300037E3D31207C080918B0490918C04019701
:1010400009F484C01092900488E3D81207C08091FC
:101050008B0490918C04019709F484C01092900441
:1010600099E3D91207C080918B0490918C04019769
:1010700009F484C01092900420E3D21207C080913A
:101080008B0490918C04019709F484C064E670E0AD
:1010900080E090E008DA60E085E163D980E090E0EC
:1010A000892B09F40BCD0E94000004CDE0912602AB
:1010B000F0912702EE0FFF1FE85DFD4F91838083C3
:1010C000A0DB78CFE0912602F0912702EE0FFF1F00
:1010D000E85DFD4F82E090E09183808392DB76CFE4
:1010E000E0912602F0912702EE0FFF1FE85DFD4F11
:1010F00023E030E03183208384DB74CFE09126024B
:10110000F0912702EE0FFF1FE85DFD4F84E090E0B5
:101110009183808376DB72CFE0912602F0912702E3
:10112000EE0FFF1FE85DFD4F25E030E031832083A7
:1011300068DB70CFE0912602F0912702EE0FFF1FCF
:10114000E85DFD4F918280825CDB70CFE0912602EA
:10115000F0912702EE0FFF1FE85DFD4F7182608264
:1011600050DB70CFE0912602F0912702EE0FFF1FB7
:10117000E85DFD4F5182408244DB70CFE091260252
:10118000F0912702EE0FFF1FE85DFD4F31822082B4
:1011900038DB70CFE0912602F0912702EE0FFF1F9F
:1011A000E85DFD4F118210822CDB70CFEAE9F4E09C
:1011B0001382128288E092E09183808386E18483A7
:1011C00087E1858388E1868385E2878384E280875F
:1011D00083E2818782E2828781E2838780E284875B
:1011E0008FE185878EE1868780E1878781E04DCA20
:1011F000EE0FFF1F881F8BBF0790F691E02D19940B
:1012000081E090E0F894E9C2DC0101C06D934150A7
:101210005040E0F70895FB01DC0101900D920020A1
:10122000E1F708950F931F93CF93DF93CDB7DEB708
:101230002E970FB6F894DEBF0FBECDBF0E891F8963
:1012400086E08C831A8309838FEF9FE79E838D83CB
:10125000AE01465E5F4F688D798DCE01019610D04C
:10126000EF81F885E00FF11F10822E960FB6F894EB
:10127000DEBF0FBECDBFDF91CF911F910F910895BB
:101280002F923F924F925F926F927F928F929F9296
:10129000AF92BF92CF92DF92EF92FF920F931F9384
:1012A000CF93DF93CDB7DEB72B970FB6F894DEBFA1
:1012B0000FBECDBF6C017B018A01FC011782168233
:1012C000838181FFBFC1CE0101963C01F60193816C
:1012D000F70193FD859193FF81917F01882309F4A4
:1012E000ADC1853239F493FD859193FF81917F01E2
:1012F000853221F4B60190E0D6D1E8CF912C212C93
:10130000312CFFE1F315D8F08B3279F038F48032CC
:1013100079F08332A1F4232D20611DC08D3261F05C
:10132000803369F4232D216016C0832D8260382E0E
:10133000E32DE4603E2E2AC0F32DF8601DC037FC7B
:101340002DC020ED280F2A3040F08E32B9F436FC43
:1013500075C1232D2064322E19C036FE06C08AE0E6
:10136000989E200D1124922E11C0EAE02E9E200D91
:101370001124222EF32DF0623F2E08C08C3621F46A
:10138000832D8068382E02C0883641F4F70193FD22
:10139000859193FF81917F018111B3CF982F9F7D1C
:1013A0009554933028F40C5F1F4F9FE399830DC031
:1013B000833631F0833771F0833509F055C020C092
:1013C000F801808189830E5F1F4F88248394912CBC
:1013D000530112C02801F2E04F0E511CF801A08009
:1013E000B18036FE03C0692D70E002C06FEF7FEF61
:1013F000C5014ED14C018201F32DFF773F2E15C060
:10140000280122E0420E511CF801A080B18036FE76
:1014100003C0692D70E002C06FEF7FEFC5012DD1D1
:101420004C01F32DF0683F2E820133FC19C0822D50
:1014300090E088169906A0F4B60180E290E033D1DE
:101440002A94F5CFF50137FC859137FE81915F0134
:10145000B60190E028D121102A9421E0821A910847
:101460008114910479F7E1C0843611F0893639F599
:10147000F80137FE07C060817181828193810C5F22
:101480001F4F08C060817181072E000C880B990BDB
:101490000E5F1F4FF32DFF763F2E97FF09C09095EB
:1014A0008095709561957F4F8F4F9F4FF0683F2ECD
:1014B0002AE030E0A30133D1882E861844C0853756
:1014C00031F4232D2F7EB22E2AE030E025C0932D5B
:1014D000997FB92E8F36C1F018F4883579F0AEC0F7
:1014E000803719F0883721F0A9C0E92FE061BE2EBE
:1014F000B4FE0DC0FB2DF460BF2E09C034FE0AC03F
:10150000292F2660B22E06C028E030E005C020E179
:1015100030E002C020E132E0F801B7FE07C0608190
:101520007181828193810C5F1F4F06C06081718140
:1015300080E090E00E5F1F4FA301F1D0882E861847
:10154000FB2DFF773F2E36FE0DC0232D2E7FA22EC2
:10155000891458F434FE0BC032FC09C0832D8E7EF2
:10156000A82E05C0B82CA32C03C0B82C01C0B92CE0
:10157000A4FE0FC0FE01E80DF11D8081803321F42F
:101580009A2D997EA92E09C0A2FE06C0B394B394E9
:1015900004C08A2D867809F0B394A3FC10C0A0FE85
:1015A00006C0B21480F4280C922C9B180DC0B21403
:1015B00058F4B60180E290E076D0B394F8CFB2143C
:1015C00018F42B1802C0982C212CA4FE0FC0B601D1
:1015D00080E390E068D0A2FE16C0A1FC03C088E7BB
:1015E00090E002C088E590E0B6010CC08A2D8678B4
:1015F00051F0A1FE02C08BE201C080E2A7FC8DE2A7
:10160000B60190E050D0891430F4B60180E390E048
:101610004AD09A94F8CF8A94F301E80DF11D8081A5
:10162000B60190E040D08110F6CF222009F44ECED2
:10163000B60180E290E037D02A94F7CFF601868198
:10164000978102C08FEF9FEF2B960FB6F894DEBF05
:101650000FBECDBFDF91CF911F910F91FF90EF9003
:10166000DF90CF90BF90AF909F908F907F906F90C2
:101670005F904F903F902F900895FC01059061502E
:1016800070400110D8F7809590958E0F9F1F089598
:10169000FC016150704001900110D8F78095909541
:1016A0008E0F9F1F08950F931F93CF93DF93FB011E
:1016B000238121FD03C08FEF9FEF2CC022FF16C0B6
:1016C00046815781248135814217530744F4A08114
:1016D000B1819D012F5F3F4F318320838C93268101
:1016E00037812F5F3F4F3783268314C08B01EC0176
:1016F000FB010084F185E02D1995892BE1F6D801D5
:1017000016968D919C911797019617969C938E93A0
:101710001697CE01DF91CF911F910F910895FA0195
:10172000AA27283051F1203181F1E8946F936E7F20
:101730006E5F7F4F8F4F9F4FAF4FB1E03ED0B4E011
:101740003CD0670F781F891F9A1FA11D680F791F52
:101750008A1F911DA11D6A0F711D811D911DA11D63
:1017600020D009F468943F912AE0269F1124301973
:10177000305D3193DEF6CF010895462F4770405D0E
:101780004193B3E00FD0C9F7F6CF462F4F70405DBD
:101790004A3318F0495D31FD4052419302D0A9F718
:1017A000EACFB4E0A6959795879577956795BA9512
:1017B000C9F700976105710508959B01AC010A2ED8
:1017C00006945795479537952795BA95C9F7620FAF
:0E17D000731F841F951FA01D0895F894FFCF6E
:1017DE000101010000000000E6038B02FE03FD0381
:1017EE004E202569002573202D25690025693A258F
:0617FE00693A25690000B4
:00000001FF
